:100000000C942A000C9447000C9447000C94470071
:100010000C9447000C9447000C9447000C94470044
:100020000C9447000C9447000C9447000C94470034
:100030000C9447000C9447000C9447000C94470024
:100040000C9447000C9447000C9447000C94470014
:100050000C94470011241FBECFE5D8E0DEBFCDBF12
:1000600010E0A0E6B0E0ECEAF6E002C005900D92E8
:10007000A238B107D9F720E0A2E8B0E001C01D9294
:10008000A238B207E1F70E9445010C9454030C9486
:1000900000002FEF2ABB21E030E002C0220F331F07
:1000A0006A95E2F727BB28BB009719F480EC8BBB5D
:1000B00008958130910519F489EF8BBB0895823042
:1000C000910519F484EA8BBB08958330910519F4E6
:1000D00080EB8BBB08958430910519F489E98BBBC3
:1000E00008958530910519F482E98BBB0895863017
:1000F000910519F482E88BBB08958730910519F4B6
:1001000088EF8BBB08958830910519F480E88BBB8C
:100110000895099711F480E98BBB089584EA86BF9E
:1001200006B607FEFDCF089583B984E886BF06B6FC
:1001300007FEFDCF089584E886BF06B607FEFDCF13
:1001400083B108951F93CF93DF930E948E0080EDBB
:100150000E94940080E00E9494000E948E0081ED35
:100160000E9494000E949B00D82F14E916BF0E94A1
:100170008E0080ED0E94940081E00E9494000E9415
:100180008E0081ED0E9494000E949B00C82F16BF34
:100190000E948E0080ED0E94940082E00E949400F4
:1001A0000E948E0081ED0E9494000E949B0016BF69
:1001B000E6E7F0E02D2F2F7030E0338722872D2FD8
:1001C00030E03595279535952795359527953595C3
:1001D0002795318720872C2F2F7030E03783268397
:1001E0002C2F30E035952795359527953595279512
:1001F0003595279535832483282F2F7030E033835E
:10020000228390E095958795959587959595879507
:100210009595879591838083DF91CF911F91089564
:10022000CF93DF930E948E0080ED0E94940080E0C7
:100230000E949400C6E7D0E08885998582959295C2
:10024000907F9827807F98279A85892B0E94940019
:100250008C819D8182959295907F9827807F9827A9
:100260009E81892B0E949400888199818295929524
:10027000907F9827807F98279A81892B0E949400ED
:1002800084E986BFDF91CF91089588E080B984EC3E
:1002900086BF11B814BA85B3836085BB12BE81E0F6
:1002A00083BF18BE89BF0F2EF8E6AF2EF0E0BF2E39
:1002B000F02DCC24C394D12C0F2EF6E66F2EF0E057
:1002C0007F2EF02D0F2EF4E64F2EF0E05F2EF02D56
:1002D0000F2EF2E62F2EF0E03F2EF02D06E710E075
:1002E0000F2EF6E7EF2EF0E0FF2EF02DC601F50100
:1002F000008002C0880F991F0A94E2F781BBC601F3
:10030000008002C0880F991F0A94E2F782BB83B372
:1003100090E0F301008002C0959587950A94E2F77A
:1003200080FD22C0FFEF24E38CE0F15020408040AC
:10033000E1F700C00000809168009091690001968B
:1003400021E08330910509F020E0211108C021E06F
:10035000853091050CF420E0222309F47FC110922E
:1003600069001092680086C183B390E0F2010080BA
:1003700002C0959587950A94E2F780FD79C0FFEF5A
:1003800024E38CE0F15020408040E1F700C0000001
:100390008091680090916900009739F4F801828596
:1003A000938501969387828712C08130910539F435
:1003B000F8018681978101969783868308C002970A
:1003C00031F4F80182819381019693838283F8014D
:1003D000828593850A973CF0808591850196918767
:1003E000808713861286F8018085918506974CF0E8
:1003F000868197810196978386831186108613865E
:100400001286F801868197810A973CF08481958154
:1004100001969583848317821682F80184819581E1
:1004200006974CF082819381019693838283178291
:10043000168215821482F801828193810A9744F012
:1004400080819181019691838083138212820AC1F7
:10045000F80180819181029709F004C18281938122
:10046000059709F0FFC01182108213821282FAC030
:1004700083B390E0F101008002C0959587950A94BE
:10048000E2F780FDCEC0FFEF24E38CE0F150204086
:100490008040E1F700C00000809168009091690001
:1004A000009739F4F80182859385019793878287B5
:1004B00012C08130910539F4F80186819781019746
:1004C0009783868308C0029731F4F8018281938173
:1004D000019793838283F801828593850A973CF084
:1004E0008085918501969187808713861286F80111
:1004F0008085918506974CF0868197810196978338
:1005000086831186108613861286F801868197816C
:100510000A973CF0848195810196958384831782A4
:100520001682F8018481958106974CF0828193812F
:100530000196938382831782168215821482F801B2
:10054000828193818A30910544F080819181019666
:1005500091838083138212820CC0F8012081318143
:100560002230310531F4059721F411821082138273
:100570001282F8018285938599234CF480859185B8
:1005800001979187808789E090E093878287F801BF
:100590008085918599236CF4868197810197978353
:1005A000868385E090E09187808789E090E093875B
:1005B0008287F8018681978199234CF48481958103
:1005C00001979583848389E090E097838683F8017F
:1005D0008481958199236CF482819381019793831F
:1005E000828389E090E09783868385E090E095831D
:1005F0008483F8018281938199234CF480819181D5
:1006000001979183808389E090E093838283F8014E
:1006100080819181992334F5118210821382128294
:1006200021C083B390E0E0E6F0E0008002C0959541
:1006300087950A94E2F780FD15C08091680090913B
:100640006900049721F00E9410018B9A939A84E02C
:1006500090E090936900809368000AC090936900CD
:10066000809368008091680090916900049711F46C
:100670000E94A200CAE6D0E00F2EF6E78F2EF0E02F
:100680009F2EF02D69917991F401819191914F0103
:100690000E9449008FEA94E00197F1F700C0000042
:0C06A000CE15DF0579F722CEF894FFCFCD
:1006AC000500040003000200040000000100020029
:1006BC000300040005000100020003000400050013
:0206CC00060026
:00000001FF
